:040000005DEF00F0C0
:100008002E002E002E002E002E002E002E00CA06D6
:100018002E002E002E002E002E002E002E002E0068
:100028002E002E002E002E002E002E002E002E0058
:100038002E002E002E002E002E002E002E002E0048
:100048002E002E002E002E002E002E002E002E0038
:100058002E002E002E002E002E002E002E002E0028
:100068002E002E002E002E002E002E002E002E0018
:100078002E002E002E002E002E002E002E002E0008
:100088002E002E002E002E002E002E002E002E00F8
:100098002E002E002E002E002E002E002E002E00E8
:1000A8002E002E002E002E002E002E002E002E00D8
:0600B800FF00EEEF0DF069
:101500000000056EC2EF0BF00250D8A48AEF0AF07B
:101510008CEF0AF094EF0AF00150FF0A0101486FC6
:10152000000E406FDDEF0BF0015001014827035022
:10153000D8B49DEF0AF09FEF0AF0A4EF0AF0015033
:1015400004010127A8EF0AF00150FF0A0401011766
:101550000450D8B4AEEF0AF0B0EF0AF0B4EF0AF0DE
:1015600001500427DDEF0BF00150FF0A0417DDEFF7
:101570000BF00250D8A4BFEF0AF0C1EF0AF0C9EF98
:101580000AF00150FF0A01014917000E416FDDEF1B
:101590000BF00150010149270350D8B4D2EF0AF0F3
:1015A000D4EF0AF0D9EF0AF0015004010927DDEF6A
:1015B0000AF00150FF0A040109170450D8B4E3EF00
:1015C0000AF0E5EF0AF0E9EF0AF001500C27DDEF31
:1015D0000BF00150FF0A0C17DDEF0BF00250D8A4FE
:1015E000F4EF0AF0F6EF0AF0FEEF0AF00150FF0AFE
:1015F00001014A17000E426FDDEF0BF001500101AF
:101600004A270350D8B407EF0BF009EF0BF00EEFA9
:101610000BF001500401112712EF0BF00150FF0AEB
:10162000040111170450D8B418EF0BF01AEF0BF0A7
:101630001EEF0BF001501427DDEF0BF00150FF0AF5
:101640001417DDEF0BF00250D8A429EF0BF02BEFAD
:101650000BF033EF0BF00150FF0A01014B17000EA6
:10166000436FDDEF0BF0015001014B270350D8B45D
:101670003CEF0BF03EEF0BF043EF0BF00150040199
:10168000192747EF0BF00150FF0A04011917045006
:10169000D8B44DEF0BF04FEF0BF053EF0BF00150C0
:1016A0001C27DDEF0BF00150FF0A1C17DDEF0BF0DC
:1016B0000250D8A45EEF0BF060EF0BF068EF0BF078
:1016C0000150FF0A01014C17000E446FDDEF0BF0D3
:1016D000015001014C270350D8B471EF0BF073EFA8
:1016E0000BF078EF0BF00150040121277CEF0BF099
:1016F0000150FF0A040121170450D8B482EF0BF007
:1017000084EF0BF088EF0BF001502427DDEF0BF096
:101710000150FF0A2417DDEF0BF00250D8A493EF1D
:101720000BF095EF0BF09DEF0BF00150FF0A01015C
:101730004D17000E456FDDEF0BF0015001014D27F5
:101740000350D8B4A6EF0BF0A8EF0BF0ADEF0BF001
:10175000015004012927B1EF0BF00150FF0A0401E9
:1017600029170450D8B4B7EF0BF0B9EF0BF0BDEF69
:101770000BF001502C27DDEF0BF00150FF0A2C1766
:10178000DDEF0BF00550000AD8B484EF0AF0010A2F
:10179000D8B4B9EF0AF0030AD8B4EEEF0AF0010AA0
:1017A000D8B423EF0BF0070AD8B458EF0BF0010AB6
:1017B000D8B48DEF0BF0DDEF0BF01200D68E000EDB
:1017C000176E000E166E000E186E000E196E000ECB
:1017D0001A6E28C515F525C50FF526C510F523C5C4
:1017E00011F524C512F521C513F522C514F51DC543
:1017F0000AF51EC50BF51FC50CF520C50DF527C54F
:101800000EF5150E016E050E026E010E036E170E1B
:10181000046E050E056EC3EC0DF00F0E016E050E85
:10182000026E020E036E160E046E050E056EC3ECFC
:101830000DF0110E016E050E026E020E036E180EF3
:10184000046E050E056EC3EC0DF0130E016E050E51
:10185000026E020E036E190E046E050E056EC3ECC9
:101860000DF00A0E016E050E026E040E036E1A0EC6
:10187000046E050E056EC3EC0DF016C501F5010EE4
:10188000026E010E036E010E046E000E81EC0AF072
:1018900016C501F5000E026E010E036E000E17EC68
:1018A0000DF017C501F5000E026E000E036E010E5D
:1018B000046E020E81EC0AF018C501F5000E026EEE
:1018C000000E036E010E046E000E81EC0AF019C5C5
:1018D00001F5000E026E000E036E010E046E010E85
:1018E00081EC0AF01AC501F5000E026E000E036EBF
:1018F000010E046E030E81EC0AF02A50D8B483EF77
:101900000CF085EF0CF07DEF0CF02950D8B48BEF84
:101910000CF08DEF0CF0C3EF0CF0185039EC0EF01A
:10192000195034EC0EF01A502AEC0EF017502FEC30
:101930000EF01B681C681B06D8A01C061B501C1050
:10194000D8A4A5EF0CF0A7EF0CF09BEF0CF018500B
:1019500024EC0EF019501EEC0EF01A5012EC0EF0A2
:10196000175018EC0EF01B681C681B06D8A01C064C
:101970001B501C10D8A4BFEF0CF0C1EF0CF0B5EF5A
:101980000CF07DEF0CF0185039EC0EF0195034ECDF
:101990000EF01A5012EC0EF0175018EC0EF01B68F7
:1019A0001C681B06D8A01C061B501C10D8A4DBEF1B
:1019B0000CF0DDEF0CF0D1EF0CF01B681C681B067F
:1019C000D8A01C061B501C10D8A4E9EF0CF0EBEFBC
:1019D0000CF0DFEF0CF0185024EC0EF019501EEC58
:1019E0000EF01A502AEC0EF017502FEC0EF01B6878
:1019F0001C681B06D8A01C061B501C10D8A403EFA3
:101A00000DF005EF0DF0F9EF0CF01B681C681B06DC
:101A1000D8A01C061B501C10D8A411EF0DF013EF1A
:101A20000DF007EF0DF07DEF0CF05DEF00F0046EB0
:101A30000350D8B41EEF0DF020EF0DF077EF0DF04E
:101A4000A78E77EF0DF0000E0401076F0150FF0A1B
:101A500000170250D8B42FEF0DF031EF0DF038EF32
:101A60000DF0015005130150FF0A061792EF0DF01B
:101A70000150FF0A05170150061392EF0DF0000EFA
:101A800004010F6F0150FF0A08170250D8B44BEF42
:101A90000DF04DEF0DF054EF0DF001500D1301500E
:101AA000FF0A0E1792EF0DF00150FF0A0D170150BB
:101AB0000E1392EF0DF0000E0401176F0150FF0A94
:101AC00010170250D8B467EF0DF069EF0DF070EF0A
:101AD0000DF0015015130150FF0A161792EF0DF08B
:101AE0000150FF0A15170150161392EF0DF0045024
:101AF000000AD8B423EF0DF0010AD8B43FEF0DF07F
:101B0000030AD8B45BEF0DF0010AD8B492EF0DF0E0
:101B1000070AD8B492EF0DF0010AD8B492EF0DF095
:061B200092EF0DF012002F
:101B2800B29E040107A19BEF0DF09DEF0DF0ACEF05
:101B38000DF007912A50D8B4A4EF0DF0A6EF0DF0E0
:101B4800AAEF0DF0000E2A6EACEF0DF0010E2A6E12
:101B580007A3B1EF0DF0B3EF0DF0C2EF0DF007934F
:101B68002950D8B4BAEF0DF0BCEF0DF0C0EF0DF06E
:101B7800000E296EC2EF0DF0010E296E1100000E45
:101B8800086E000E096EDEEF0DF009500124D96EC3
:101B9800000E0220DA6EDF50066E010E076E062A6E
:101BA800D8EF0DF0D8900736062ED6EF0DF0075077
:101BB8000812092A0350095CD8A0E5EF0DF0E7EFF9
:101BC8000DF0C9EF0DF004C5D9F405C5DAF408C560
:101BD800DFF41200180EF66E1C0EF76E000EF86E8B
:101BE80001EE1DF110EE0CF00900F5C4EEF4E5501D
:101BF800E150FAE12A6A296A0401080E5D6F000EB5
:101C08005E6F000E5F6F000EF86E0001DEEF0BF0E6
:101C1800000104050405060700010107016E0150D3
:101C2800FF0A010143171200016E0150FF0A01016A
:101C380042171200016E0150FF0A010141171200FC
:101C4800016E0150FF0A010140171200016E015098
:101C5800010143271200016E0150010142271200C1
:101C6800016E0150010141271200016E015001016E
:041C780040271200EF
:020000040030CA
:0B0000008CFFFBFF9FFF01FFFFFFFFD5
:00000001FF
